{
  "_format": "hh-sol-artifact-1",
  "contractName": "HLTHY",
  "sourceName": "contracts/Gafi.sol",
  "abi": [
    {
      "inputs": [],
      "stateMutability": "nonpayable",
      "type": "constructor"
    },
    {
      "anonymous": false,
      "inputs": [
        {
          "indexed": true,
          "internalType": "address",
          "name": "owner",
          "type": "address"
        },
        {
          "indexed": true,
          "internalType": "address",
          "name": "spender",
          "type": "address"
        },
        {
          "indexed": false,
          "internalType": "uint256",
          "name": "value",
          "type": "uint256"
        }
      ],
      "name": "Approval",
      "type": "event"
    },
    {
      "anonymous": false,
      "inputs": [
        {
          "indexed": true,
          "internalType": "address",
          "name": "to",
          "type": "address"
        },
        {
          "indexed": false,
          "internalType": "uint256",
          "name": "amount",
          "type": "uint256"
        }
      ],
      "name": "DividendPaid",
      "type": "event"
    },
    {
      "anonymous": false,
      "inputs": [
        {
          "indexed": true,
          "internalType": "address",
          "name": "previousOwner",
          "type": "address"
        },
        {
          "indexed": true,
          "internalType": "address",
          "name": "newOwner",
          "type": "address"
        }
      ],
      "name": "OwnershipTransferred",
      "type": "event"
    },
    {
      "anonymous": false,
      "inputs": [
        {
          "indexed": true,
          "internalType": "address",
          "name": "from",
          "type": "address"
        },
        {
          "indexed": true,
          "internalType": "address",
          "name": "to",
          "type": "address"
        },
        {
          "indexed": false,
          "internalType": "uint256",
          "name": "value",
          "type": "uint256"
        }
      ],
      "name": "Transfer",
      "type": "event"
    },
    {
      "inputs": [
        {
          "internalType": "address",
          "name": "account",
          "type": "address"
        }
      ],
      "name": "addToWhitelist",
      "outputs": [],
      "stateMutability": "nonpayable",
      "type": "function"
    },
    {
      "inputs": [
        {
          "internalType": "address",
          "name": "owner",
          "type": "address"
        },
        {
          "internalType": "address",
          "name": "spender",
          "type": "address"
        }
      ],
      "name": "allowance",
      "outputs": [
        {
          "internalType": "uint256",
          "name": "",
          "type": "uint256"
        }
      ],
      "stateMutability": "view",
      "type": "function"
    },
    {
      "inputs": [
        {
          "internalType": "address",
          "name": "spender",
          "type": "address"
        },
        {
          "internalType": "uint256",
          "name": "amount",
          "type": "uint256"
        }
      ],
      "name": "approve",
      "outputs": [
        {
          "internalType": "bool",
          "name": "",
          "type": "bool"
        }
      ],
      "stateMutability": "nonpayable",
      "type": "function"
    },
    {
      "inputs": [
        {
          "internalType": "address",
          "name": "account",
          "type": "address"
        }
      ],
      "name": "balanceOf",
      "outputs": [
        {
          "internalType": "uint256",
          "name": "",
          "type": "uint256"
        }
      ],
      "stateMutability": "view",
      "type": "function"
    },
    {
      "inputs": [],
      "name": "decimals",
      "outputs": [
        {
          "internalType": "uint8",
          "name": "",
          "type": "uint8"
        }
      ],
      "stateMutability": "view",
      "type": "function"
    },
    {
      "inputs": [
        {
          "internalType": "address",
          "name": "spender",
          "type": "address"
        },
        {
          "internalType": "uint256",
          "name": "subtractedValue",
          "type": "uint256"
        }
      ],
      "name": "decreaseAllowance",
      "outputs": [
        {
          "internalType": "bool",
          "name": "",
          "type": "bool"
        }
      ],
      "stateMutability": "nonpayable",
      "type": "function"
    },
    {
      "inputs": [
        {
          "internalType": "address",
          "name": "spender",
          "type": "address"
        },
        {
          "internalType": "uint256",
          "name": "addedValue",
          "type": "uint256"
        }
      ],
      "name": "increaseAllowance",
      "outputs": [
        {
          "internalType": "bool",
          "name": "",
          "type": "bool"
        }
      ],
      "stateMutability": "nonpayable",
      "type": "function"
    },
    {
      "inputs": [
        {
          "internalType": "address",
          "name": "account",
          "type": "address"
        }
      ],
      "name": "isWhitelisted",
      "outputs": [
        {
          "internalType": "bool",
          "name": "",
          "type": "bool"
        }
      ],
      "stateMutability": "view",
      "type": "function"
    },
    {
      "inputs": [],
      "name": "name",
      "outputs": [
        {
          "internalType": "string",
          "name": "",
          "type": "string"
        }
      ],
      "stateMutability": "view",
      "type": "function"
    },
    {
      "inputs": [],
      "name": "owner",
      "outputs": [
        {
          "internalType": "address",
          "name": "",
          "type": "address"
        }
      ],
      "stateMutability": "view",
      "type": "function"
    },
    {
      "inputs": [
        {
          "internalType": "address",
          "name": "account",
          "type": "address"
        }
      ],
      "name": "removeFromWhitelist",
      "outputs": [],
      "stateMutability": "nonpayable",
      "type": "function"
    },
    {
      "inputs": [],
      "name": "renounceOwnership",
      "outputs": [],
      "stateMutability": "nonpayable",
      "type": "function"
    },
    {
      "inputs": [],
      "name": "symbol",
      "outputs": [
        {
          "internalType": "string",
          "name": "",
          "type": "string"
        }
      ],
      "stateMutability": "view",
      "type": "function"
    },
    {
      "inputs": [],
      "name": "totalSupply",
      "outputs": [
        {
          "internalType": "uint256",
          "name": "",
          "type": "uint256"
        }
      ],
      "stateMutability": "view",
      "type": "function"
    },
    {
      "inputs": [
        {
          "internalType": "address",
          "name": "to",
          "type": "address"
        },
        {
          "internalType": "uint256",
          "name": "amount",
          "type": "uint256"
        }
      ],
      "name": "transfer",
      "outputs": [
        {
          "internalType": "bool",
          "name": "",
          "type": "bool"
        }
      ],
      "stateMutability": "nonpayable",
      "type": "function"
    },
    {
      "inputs": [
        {
          "internalType": "address",
          "name": "from",
          "type": "address"
        },
        {
          "internalType": "address",
          "name": "to",
          "type": "address"
        },
        {
          "internalType": "uint256",
          "name": "amount",
          "type": "uint256"
        }
      ],
      "name": "transferFrom",
      "outputs": [
        {
          "internalType": "bool",
          "name": "",
          "type": "bool"
        }
      ],
      "stateMutability": "nonpayable",
      "type": "function"
    },
    {
      "inputs": [
        {
          "internalType": "address",
          "name": "newOwner",
          "type": "address"
        }
      ],
      "name": "transferOwnership",
      "outputs": [],
      "stateMutability": "nonpayable",
      "type": "function"
    },
    {
      "inputs": [
        {
          "internalType": "address",
          "name": "recipient",
          "type": "address"
        },
        {
          "internalType": "uint256",
          "name": "amount",
          "type": "uint256"
        }
      ],
      "name": "transferWithDividend",
      "outputs": [],
      "stateMutability": "nonpayable",
      "type": "function"
    }
  ],
  "bytecode": "0x60806040523480156200001157600080fd5b506040518060400160405280600681526020017f54484c54485900000000000000000000000000000000000000000000000000008152506040518060400160405280600681526020017f54484c54485900000000000000000000000000000000000000000000000000008152508160039080519060200190620000969291906200034f565b508060049080519060200190620000af9291906200034f565b505050620000d2620000c66200010960201b60201c565b6200011160201b60201c565b62000103336012600a620000e791906200053f565b620f4240620000f791906200067c565b620001d760201b60201c565b620007b1565b600033905090565b6000600560009054906101000a900473ffffffffffffffffffffffffffffffffffffffff16905081600560006101000a81548173ffffffffffffffffffffffffffffffffffffffff021916908373ffffffffffffffffffffffffffffffffffffffff1602179055508173ffffffffffffffffffffffffffffffffffffffff168173ffffffffffffffffffffffffffffffffffffffff167f8be0079c531659141344cd1fd0a4f28419497f9722a3daafe3b4186f6b6457e060405160405180910390a35050565b600073ffffffffffffffffffffffffffffffffffffffff168273ffffffffffffffffffffffffffffffffffffffff1614156200024a576040517f08c379a0000000000000000000000000000000000000000000000000000000008152600401620002419062000437565b60405180910390fd5b6200025e600083836200034560201b60201c565b806002600082825462000272919062000487565b92505081905550806000808473ffffffffffffffffffffffffffffffffffffffff1673ffffffffffffffffffffffffffffffffffffffff168152602001908152602001600020600082825401925050819055508173ffffffffffffffffffffffffffffffffffffffff16600073ffffffffffffffffffffffffffffffffffffffff167fddf252ad1be2c89b69c2b068fc378daa952ba7f163c4a11628f55a4df523b3ef8360405162000325919062000459565b60405180910390a362000341600083836200034a60201b60201c565b5050565b505050565b505050565b8280546200035d90620006e7565b90600052602060002090601f016020900481019282620003815760008555620003cd565b82601f106200039c57805160ff1916838001178555620003cd565b82800160010185558215620003cd579182015b82811115620003cc578251825591602001919060010190620003af565b5b509050620003dc9190620003e0565b5090565b5b80821115620003fb576000816000905550600101620003e1565b5090565b60006200040e601f8362000476565b91506200041b8262000788565b602082019050919050565b6200043181620006dd565b82525050565b600060208201905081810360008301526200045281620003ff565b9050919050565b600060208201905062000470600083018462000426565b92915050565b600082825260208201905092915050565b60006200049482620006dd565b9150620004a183620006dd565b9250827fffffffffffffffffffffffffffffffffffffffffffffffffffffffffffffffff03821115620004d957620004d86200071d565b5b828201905092915050565b6000808291508390505b600185111562000536578086048111156200050e576200050d6200071d565b5b60018516156200051e5780820291505b80810290506200052e856200077b565b9450620004ee565b94509492505050565b60006200054c82620006dd565b91506200055983620006dd565b9250620005887fffffffffffffffffffffffffffffffffffffffffffffffffffffffffffffffff848462000590565b905092915050565b600082620005a2576001905062000675565b81620005b2576000905062000675565b8160018114620005cb5760028114620005d6576200060c565b600191505062000675565b60ff841115620005eb57620005ea6200071d565b5b8360020a9150848211156200060557620006046200071d565b5b5062000675565b5060208310610133831016604e8410600b8410161715620006465782820a90508381111562000640576200063f6200071d565b5b62000675565b620006558484846001620004e4565b925090508184048111156200066f576200066e6200071d565b5b81810290505b9392505050565b60006200068982620006dd565b91506200069683620006dd565b9250817fffffffffffffffffffffffffffffffffffffffffffffffffffffffffffffffff0483118215151615620006d257620006d16200071d565b5b828202905092915050565b6000819050919050565b600060028204905060018216806200070057607f821691505b602082108114156200071757620007166200074c565b5b50919050565b7f4e487b7100000000000000000000000000000000000000000000000000000000600052601160045260246000fd5b7f4e487b7100000000000000000000000000000000000000000000000000000000600052602260045260246000fd5b60008160011c9050919050565b7f45524332303a206d696e7420746f20746865207a65726f206164647265737300600082015250565b611b4d80620007c16000396000f3fe608060405234801561001057600080fd5b50600436106101165760003560e01c8063715018a6116100a2578063a457c2d711610071578063a457c2d7146102e3578063a9059cbb14610313578063dd62ed3e14610343578063e43252d714610373578063f2fde38b1461038f57610116565b8063715018a6146102815780638ab1d6811461028b5780638da5cb5b146102a757806395d89b41146102c557610116565b8063313ce567116100e9578063313ce567146101b757806339509351146101d55780633af32abf146102055780634c57f3651461023557806370a082311461025157610116565b806306fdde031461011b578063095ea7b31461013957806318160ddd1461016957806323b872dd14610187575b600080fd5b6101236103ab565b6040516101309190611469565b60405180910390f35b610153600480360381019061014e9190611201565b61043d565b604051610160919061144e565b60405180910390f35b610171610460565b60405161017e91906115eb565b60405180910390f35b6101a1600480360381019061019c91906111b2565b61046a565b6040516101ae919061144e565b60405180910390f35b6101bf610499565b6040516101cc9190611606565b60405180910390f35b6101ef60048036038101906101ea9190611201565b6104a2565b6040516101fc919061144e565b60405180910390f35b61021f600480360381019061021a919061114d565b6104d9565b60405161022c919061144e565b60405180910390f35b61024f600480360381019061024a9190611201565b61052f565b005b61026b6004803603810190610266919061114d565b6106df565b60405161027891906115eb565b60405180910390f35b610289610727565b005b6102a560048036038101906102a0919061114d565b61073b565b005b6102af61079e565b6040516102bc9190611433565b60405180910390f35b6102cd6107c8565b6040516102da9190611469565b60405180910390f35b6102fd60048036038101906102f89190611201565b61085a565b60405161030a919061144e565b60405180910390f35b61032d60048036038101906103289190611201565b6108d1565b60405161033a919061144e565b60405180910390f35b61035d60048036038101906103589190611176565b6108f4565b60405161036a91906115eb565b60405180910390f35b61038d6004803603810190610388919061114d565b61097b565b005b6103a960048036038101906103a4919061114d565b6109de565b005b6060600380546103ba9061174c565b80601f01602080910402602001604051908101604052809291908181526020018280546103e69061174c565b80156104335780601f1061040857610100808354040283529160200191610433565b820191906000526020600020905b81548152906001019060200180831161041657829003601f168201915b5050505050905090565b600080610448610a62565b9050610455818585610a6a565b600191505092915050565b6000600254905090565b600080610475610a62565b9050610482858285610c35565b61048d858585610cc1565b60019150509392505050565b60006012905090565b6000806104ad610a62565b90506104ce8185856104bf85896108f4565b6104c9919061163d565b610a6a565b600191505092915050565b6000600660008373ffffffffffffffffffffffffffffffffffffffff1673ffffffffffffffffffffffffffffffffffffffff16815260200190815260200160002060009054906101000a900460ff169050919050565b600660003373ffffffffffffffffffffffffffffffffffffffff1673ffffffffffffffffffffffffffffffffffffffff16815260200190815260200160002060009054906101000a900460ff166105bb576040517f08c379a00000000000000000000000000000000000000000000000000000000081526004016105b2906114ab565b60405180910390fd5b600073ffffffffffffffffffffffffffffffffffffffff168273ffffffffffffffffffffffffffffffffffffffff16141561062b576040517f08c379a00000000000000000000000000000000000000000000000000000000081526004016106229061148b565b60405180910390fd5b610634336106df565b811115610676576040517f08c379a000000000000000000000000000000000000000000000000000000000815260040161066d9061154b565b60405180910390fd5b610681338383610cc1565b8173ffffffffffffffffffffffffffffffffffffffff167fb70dbf0e62ac2891fc0dccea9117219168105932d8f1537152476ad5e9f7a19d6064836106c69190611693565b6040516106d391906115eb565b60405180910390a25050565b60008060008373ffffffffffffffffffffffffffffffffffffffff1673ffffffffffffffffffffffffffffffffffffffff168152602001908152602001600020549050919050565b61072f610d5d565b6107396000610ddb565b565b610743610d5d565b6000600660008373ffffffffffffffffffffffffffffffffffffffff1673ffffffffffffffffffffffffffffffffffffffff16815260200190815260200160002060006101000a81548160ff02191690831515021790555050565b6000600560009054906101000a900473ffffffffffffffffffffffffffffffffffffffff16905090565b6060600480546107d79061174c565b80601f01602080910402602001604051908101604052809291908181526020018280546108039061174c565b80156108505780601f1061082557610100808354040283529160200191610850565b820191906000526020600020905b81548152906001019060200180831161083357829003601f168201915b5050505050905090565b600080610865610a62565b9050600061087382866108f4565b9050838110156108b8576040517f08c379a00000000000000000000000000000000000000000000000000000000081526004016108af906115cb565b60405180910390fd5b6108c58286868403610a6a565b60019250505092915050565b6000806108dc610a62565b90506108e9818585610cc1565b600191505092915050565b6000600160008473ffffffffffffffffffffffffffffffffffffffff1673ffffffffffffffffffffffffffffffffffffffff16815260200190815260200160002060008373ffffffffffffffffffffffffffffffffffffffff1673ffffffffffffffffffffffffffffffffffffffff16815260200190815260200160002054905092915050565b610983610d5d565b6001600660008373ffffffffffffffffffffffffffffffffffffffff1673ffffffffffffffffffffffffffffffffffffffff16815260200190815260200160002060006101000a81548160ff02191690831515021790555050565b6109e6610d5d565b600073ffffffffffffffffffffffffffffffffffffffff168173ffffffffffffffffffffffffffffffffffffffff161415610a56576040517f08c379a0000000000000000000000000000000000000000000000000000000008152600401610a4d906114cb565b60405180910390fd5b610a5f81610ddb565b50565b600033905090565b600073ffffffffffffffffffffffffffffffffffffffff168373ffffffffffffffffffffffffffffffffffffffff161415610ada576040517f08c379a0000000000000000000000000000000000000000000000000000000008152600401610ad1906115ab565b60405180910390fd5b600073ffffffffffffffffffffffffffffffffffffffff168273ffffffffffffffffffffffffffffffffffffffff161415610b4a576040517f08c379a0000000000000000000000000000000000000000000000000000000008152600401610b41906114eb565b60405180910390fd5b80600160008573ffffffffffffffffffffffffffffffffffffffff1673ffffffffffffffffffffffffffffffffffffffff16815260200190815260200160002060008473ffffffffffffffffffffffffffffffffffffffff1673ffffffffffffffffffffffffffffffffffffffff168152602001908152602001600020819055508173ffffffffffffffffffffffffffffffffffffffff168373ffffffffffffffffffffffffffffffffffffffff167f8c5be1e5ebec7d5bd14f71427d1e84f3dd0314c0f7b2291e5b200ac8c7c3b92583604051610c2891906115eb565b60405180910390a3505050565b6000610c4184846108f4565b90507fffffffffffffffffffffffffffffffffffffffffffffffffffffffffffffffff8114610cbb5781811015610cad576040517f08c379a0000000000000000000000000000000000000000000000000000000008152600401610ca49061152b565b60405180910390fd5b610cba8484848403610a6a565b5b50505050565b600660008373ffffffffffffffffffffffffffffffffffffffff1673ffffffffffffffffffffffffffffffffffffffff16815260200190815260200160002060009054906101000a900460ff16610d4d576040517f08c379a0000000000000000000000000000000000000000000000000000000008152600401610d449061150b565b60405180910390fd5b610d58838383610ea1565b505050565b610d65610a62565b73ffffffffffffffffffffffffffffffffffffffff16610d8361079e565b73ffffffffffffffffffffffffffffffffffffffff1614610dd9576040517f08c379a0000000000000000000000000000000000000000000000000000000008152600401610dd09061156b565b60405180910390fd5b565b6000600560009054906101000a900473ffffffffffffffffffffffffffffffffffffffff16905081600560006101000a81548173ffffffffffffffffffffffffffffffffffffffff021916908373ffffffffffffffffffffffffffffffffffffffff1602179055508173ffffffffffffffffffffffffffffffffffffffff168173ffffffffffffffffffffffffffffffffffffffff167f8be0079c531659141344cd1fd0a4f28419497f9722a3daafe3b4186f6b6457e060405160405180910390a35050565b600073ffffffffffffffffffffffffffffffffffffffff168373ffffffffffffffffffffffffffffffffffffffff161415610f11576040517f08c379a0000000000000000000000000000000000000000000000000000000008152600401610f089061158b565b60405180910390fd5b600073ffffffffffffffffffffffffffffffffffffffff168273ffffffffffffffffffffffffffffffffffffffff161415610f81576040517f08c379a0000000000000000000000000000000000000000000000000000000008152600401610f789061148b565b60405180910390fd5b610f8c838383611119565b60008060008573ffffffffffffffffffffffffffffffffffffffff1673ffffffffffffffffffffffffffffffffffffffff16815260200190815260200160002054905081811015611012576040517f08c379a00000000000000000000000000000000000000000000000000000000081526004016110099061154b565b60405180910390fd5b8181036000808673ffffffffffffffffffffffffffffffffffffffff1673ffffffffffffffffffffffffffffffffffffffff16815260200190815260200160002081905550816000808573ffffffffffffffffffffffffffffffffffffffff1673ffffffffffffffffffffffffffffffffffffffff168152602001908152602001600020600082825401925050819055508273ffffffffffffffffffffffffffffffffffffffff168473ffffffffffffffffffffffffffffffffffffffff167fddf252ad1be2c89b69c2b068fc378daa952ba7f163c4a11628f55a4df523b3ef8460405161110091906115eb565b60405180910390a361111384848461111e565b50505050565b505050565b505050565b60008135905061113281611ae9565b92915050565b60008135905061114781611b00565b92915050565b60006020828403121561115f57600080fd5b600061116d84828501611123565b91505092915050565b6000806040838503121561118957600080fd5b600061119785828601611123565b92505060206111a885828601611123565b9150509250929050565b6000806000606084860312156111c757600080fd5b60006111d586828701611123565b93505060206111e686828701611123565b92505060406111f786828701611138565b9150509250925092565b6000806040838503121561121457600080fd5b600061122285828601611123565b925050602061123385828601611138565b9150509250929050565b611246816116c4565b82525050565b611255816116d6565b82525050565b600061126682611621565b611270818561162c565b9350611280818560208601611719565b6112898161180b565b840191505092915050565b60006112a160238361162c565b91506112ac8261181c565b604082019050919050565b60006112c460198361162c565b91506112cf8261186b565b602082019050919050565b60006112e760268361162c565b91506112f282611894565b604082019050919050565b600061130a60228361162c565b9150611315826118e3565b604082019050919050565b600061132d601c8361162c565b915061133882611932565b602082019050919050565b6000611350601d8361162c565b915061135b8261195b565b602082019050919050565b600061137360268361162c565b915061137e82611984565b604082019050919050565b600061139660208361162c565b91506113a1826119d3565b602082019050919050565b60006113b960258361162c565b91506113c4826119fc565b604082019050919050565b60006113dc60248361162c565b91506113e782611a4b565b604082019050919050565b60006113ff60258361162c565b915061140a82611a9a565b604082019050919050565b61141e81611702565b82525050565b61142d8161170c565b82525050565b6000602082019050611448600083018461123d565b92915050565b6000602082019050611463600083018461124c565b92915050565b60006020820190508181036000830152611483818461125b565b905092915050565b600060208201905081810360008301526114a481611294565b9050919050565b600060208201905081810360008301526114c4816112b7565b9050919050565b600060208201905081810360008301526114e4816112da565b9050919050565b60006020820190508181036000830152611504816112fd565b9050919050565b6000602082019050818103600083015261152481611320565b9050919050565b6000602082019050818103600083015261154481611343565b9050919050565b6000602082019050818103600083015261156481611366565b9050919050565b6000602082019050818103600083015261158481611389565b9050919050565b600060208201905081810360008301526115a4816113ac565b9050919050565b600060208201905081810360008301526115c4816113cf565b9050919050565b600060208201905081810360008301526115e4816113f2565b9050919050565b60006020820190506116006000830184611415565b92915050565b600060208201905061161b6000830184611424565b92915050565b600081519050919050565b600082825260208201905092915050565b600061164882611702565b915061165383611702565b9250827fffffffffffffffffffffffffffffffffffffffffffffffffffffffffffffffff038211156116885761168761177e565b5b828201905092915050565b600061169e82611702565b91506116a983611702565b9250826116b9576116b86117ad565b5b828204905092915050565b60006116cf826116e2565b9050919050565b60008115159050919050565b600073ffffffffffffffffffffffffffffffffffffffff82169050919050565b6000819050919050565b600060ff82169050919050565b60005b8381101561173757808201518184015260208101905061171c565b83811115611746576000848401525b50505050565b6000600282049050600182168061176457607f821691505b60208210811415611778576117776117dc565b5b50919050565b7f4e487b7100000000000000000000000000000000000000000000000000000000600052601160045260246000fd5b7f4e487b7100000000000000000000000000000000000000000000000000000000600052601260045260246000fd5b7f4e487b7100000000000000000000000000000000000000000000000000000000600052602260045260246000fd5b6000601f19601f8301169050919050565b7f45524332303a207472616e7366657220746f20746865207a65726f206164647260008201527f6573730000000000000000000000000000000000000000000000000000000000602082015250565b7f53656e646572206973206e6f742077686974656c697374656400000000000000600082015250565b7f4f776e61626c653a206e6577206f776e657220697320746865207a65726f206160008201527f6464726573730000000000000000000000000000000000000000000000000000602082015250565b7f45524332303a20617070726f766520746f20746865207a65726f20616464726560008201527f7373000000000000000000000000000000000000000000000000000000000000602082015250565b7f526563697069656e74206973206e6f742077686974656c697374656400000000600082015250565b7f45524332303a20696e73756666696369656e7420616c6c6f77616e6365000000600082015250565b7f45524332303a207472616e7366657220616d6f756e742065786365656473206260008201527f616c616e63650000000000000000000000000000000000000000000000000000602082015250565b7f4f776e61626c653a2063616c6c6572206973206e6f7420746865206f776e6572600082015250565b7f45524332303a207472616e736665722066726f6d20746865207a65726f20616460008201527f6472657373000000000000000000000000000000000000000000000000000000602082015250565b7f45524332303a20617070726f76652066726f6d20746865207a65726f2061646460008201527f7265737300000000000000000000000000000000000000000000000000000000602082015250565b7f45524332303a2064656372656173656420616c6c6f77616e63652062656c6f7760008201527f207a65726f000000000000000000000000000000000000000000000000000000602082015250565b611af2816116c4565b8114611afd57600080fd5b50565b611b0981611702565b8114611b1457600080fd5b5056fea2646970667358221220fab4e7e35804a6574ee7aba9abc917670dc813edeb5fea7ecd13c4e3320e8bf564736f6c63430008040033",
  "linkReferences": {},
  "deployedLinkReferences": {}
}